{
  "contractName": "Aucation",
  "abi": [
    {
      "inputs": [],
      "name": "putBid",
      "outputs": [],
      "stateMutability": "payable",
      "type": "function"
    },
    {
      "inputs": [
        {
          "internalType": "address",
          "name": "_address",
          "type": "address"
        }
      ],
      "name": "getContractBalance",
      "outputs": [
        {
          "internalType": "uint256",
          "name": "",
          "type": "uint256"
        }
      ],
      "stateMutability": "view",
      "type": "function"
    },
    {
      "inputs": [],
      "name": "HighestBid",
      "outputs": [
        {
          "internalType": "uint256",
          "name": "",
          "type": "uint256"
        }
      ],
      "stateMutability": "view",
      "type": "function"
    },
    {
      "inputs": [],
      "name": "HighestBidder",
      "outputs": [
        {
          "internalType": "address",
          "name": "",
          "type": "address"
        }
      ],
      "stateMutability": "view",
      "type": "function"
    },
    {
      "inputs": [
        {
          "internalType": "uint256",
          "name": "_endTime",
          "type": "uint256"
        }
      ],
      "name": "putEndTime",
      "outputs": [],
      "stateMutability": "nonpayable",
      "type": "function"
    },
    {
      "inputs": [
        {
          "internalType": "address payable",
          "name": "_address",
          "type": "address"
        }
      ],
      "name": "withdrawBid",
      "outputs": [],
      "stateMutability": "nonpayable",
      "type": "function"
    }
  ],
  "bytecode": "0x60806040524260035534801561001457600080fd5b50610804806100246000396000f3fe608060405260043610610072576000357c010000000000000000000000000000000000000000000000000000000090048063167fb50e1461007757806343ab265f146100a25780634ede3648146100df5780637f6a9d5014610108578063996657af14610131578063f5cc772a1461015c575b600080fd5b34801561008357600080fd5b5061008c610166565b604051610099919061047d565b60405180910390f35b3480156100ae57600080fd5b506100c960048036038101906100c491906104fb565b610170565b6040516100d6919061047d565b60405180910390f35b3480156100eb57600080fd5b5061010660048036038101906101019190610566565b6101b8565b005b34801561011457600080fd5b5061012f600480360381019061012a91906105bf565b610288565b005b34801561013d57600080fd5b50610146610292565b60405161015391906105fb565b60405180910390f35b6101646102bc565b005b6000600154905090565b60008060008373ffffffffffffffffffffffffffffffffffffffff1673ffffffffffffffffffffffffffffffffffffffff168152602001908152602001600020549050919050565b60008060008373ffffffffffffffffffffffffffffffffffffffff1673ffffffffffffffffffffffffffffffffffffffff168152602001908152602001600020541115610285578073ffffffffffffffffffffffffffffffffffffffff166108fc6000808473ffffffffffffffffffffffffffffffffffffffff1673ffffffffffffffffffffffffffffffffffffffff168152602001908152602001600020549081150290604051600060405180830381858888f19350505050158015610283573d6000803e3d6000fd5b505b50565b8060048190555050565b6000600260009054906101000a900473ffffffffffffffffffffffffffffffffffffffff16905090565b6000346000803373ffffffffffffffffffffffffffffffffffffffff1673ffffffffffffffffffffffffffffffffffffffff168152602001908152602001600020546103089190610645565b905060045442111561034f576040517f08c379a0000000000000000000000000000000000000000000000000000000008152600401610346906106d6565b60405180910390fd5b60003411610392576040517f08c379a000000000000000000000000000000000000000000000000000000000815260040161038990610742565b60405180910390fd5b60015481116103d6576040517f08c379a00000000000000000000000000000000000000000000000000000000081526004016103cd906107ae565b60405180910390fd5b806000803373ffffffffffffffffffffffffffffffffffffffff1673ffffffffffffffffffffffffffffffffffffffff168152602001908152602001600020819055508060018190555033600260006101000a81548173ffffffffffffffffffffffffffffffffffffffff021916908373ffffffffffffffffffffffffffffffffffffffff16021790555050565b6000819050919050565b61047781610464565b82525050565b6000602082019050610492600083018461046e565b92915050565b600080fd5b600073ffffffffffffffffffffffffffffffffffffffff82169050919050565b60006104c88261049d565b9050919050565b6104d8816104bd565b81146104e357600080fd5b50565b6000813590506104f5816104cf565b92915050565b60006020828403121561051157610510610498565b5b600061051f848285016104e6565b91505092915050565b60006105338261049d565b9050919050565b61054381610528565b811461054e57600080fd5b50565b6000813590506105608161053a565b92915050565b60006020828403121561057c5761057b610498565b5b600061058a84828501610551565b91505092915050565b61059c81610464565b81146105a757600080fd5b50565b6000813590506105b981610593565b92915050565b6000602082840312156105d5576105d4610498565b5b60006105e3848285016105aa565b91505092915050565b6105f5816104bd565b82525050565b600060208201905061061060008301846105ec565b92915050565b7f4e487b7100000000000000000000000000000000000000000000000000000000600052601160045260246000fd5b600061065082610464565b915061065b83610464565b925082820190508082111561067357610672610616565b5b92915050565b600082825260208201905092915050565b7f41756374696f6e20697320456e64656400000000000000000000000000000000600082015250565b60006106c0601083610679565b91506106cb8261068a565b602082019050919050565b600060208201905081810360008301526106ef816106b3565b9050919050565b7f42696420416d6f756e742043616e6e6f74204265205a65726f00000000000000600082015250565b600061072c601983610679565b9150610737826106f6565b602082019050919050565b6000602082019050818103600083015261075b8161071f565b9050919050565b7f486967686573742042696420416c72656164792050726573656e740000000000600082015250565b6000610798601b83610679565b91506107a382610762565b602082019050919050565b600060208201905081810360008301526107c78161078b565b905091905056fea264697066735822122095118f5052b290dd97d0865ed201e67149b6eaa9d1f5f92541f29fc143aa606e64736f6c63430008150033",
  "immutableReferences": {},
  "source": "// SPDX-License-Identifier: GPL-3.0\r\n\r\npragma solidity >=0.4.0 <0.9.0;\r\n\r\n\r\n\r\ncontract Aucation {\r\n    mapping ( address => uint ) biddersData; \r\n    uint highestBidAmount;\r\n    address highestBidder;\r\n    uint startTime=block.timestamp;\r\n    uint endTime;\r\n\r\n\r\n  // put new bid\r\n\r\nfunction putBid() public payable  {\r\n\r\n // verify value is not zero\r\nuint calculateAmount = biddersData[msg.sender] + msg.value;\r\n // check session not ended\r\nrequire(block.timestamp<=endTime, \"Auction is Ended\");\r\nrequire(msg.value>0,\"Bid Amount Cannot Be Zero\");\r\n// check Highest Bid\r\nrequire(calculateAmount>highestBidAmount,\"Highest Bid Already Present\");\r\n\r\nbiddersData[msg.sender] = calculateAmount;\r\nhighestBidAmount = calculateAmount;\r\nhighestBidder = msg.sender;\r\n\r\n}\r\n\r\n    // get Contract Balance (Only for testing)\r\nfunction getContractBalance(address _address) public view returns (uint)   {\r\nreturn biddersData[_address];\r\n\r\n}\r\n\r\n\r\n  //get highest Bid amount\r\n\r\nfunction HighestBid() public view  returns(uint){\r\n    return highestBidAmount;\r\n}\r\n\r\n  //get highest Bidder Address\r\n\r\nfunction HighestBidder() public view  returns(address){\r\n    return highestBidder;\r\n}\r\n\r\n  //put endTime\r\n\r\nfunction  putEndTime(uint _endTime) public {\r\n  endTime=_endTime;\r\n}\r\n\r\n//withdraw bid\r\nfunction withdrawBid(address payable  _address) public {\r\n  if(biddersData[_address]>0){\r\n    _address.transfer(biddersData[_address]);\r\n  }\r\n}\r\n\r\n\r\n}",
  "sourcePath": "C:\\Thanusha\\ICBT\\Topup ( data science )\\Blockchain\\Project\\contracts\\Auction.sol",
  "compiler": {
    "name": "solc",
    "version": "0.8.21+commit.d9974bed.Emscripten.clang"
  },
  "schemaVersion": "3.4.16",
  "updatedAt": "2026-02-15T14:02:48.753Z",
  "devdoc": {
    "kind": "dev",
    "methods": {},
    "version": 1
  },
  "userdoc": {
    "kind": "user",
    "methods": {},
    "version": 1
  }
}