{
  "contractName": "Auction",
  "abi": [
    {
      "inputs": [],
      "stateMutability": "nonpayable",
      "type": "constructor"
    },
    {
      "anonymous": false,
      "inputs": [
        {
          "indexed": true,
          "internalType": "uint256",
          "name": "tenderId",
          "type": "uint256"
        },
        {
          "indexed": false,
          "internalType": "address",
          "name": "bidder",
          "type": "address"
        },
        {
          "indexed": false,
          "internalType": "uint256",
          "name": "amount",
          "type": "uint256"
        }
      ],
      "name": "BidPlaced",
      "type": "event"
    },
    {
      "anonymous": false,
      "inputs": [
        {
          "indexed": true,
          "internalType": "uint256",
          "name": "tenderId",
          "type": "uint256"
        },
        {
          "indexed": false,
          "internalType": "address",
          "name": "winner",
          "type": "address"
        },
        {
          "indexed": false,
          "internalType": "uint256",
          "name": "amount",
          "type": "uint256"
        }
      ],
      "name": "TenderAssigned",
      "type": "event"
    },
    {
      "anonymous": false,
      "inputs": [
        {
          "indexed": true,
          "internalType": "uint256",
          "name": "id",
          "type": "uint256"
        },
        {
          "indexed": false,
          "internalType": "string",
          "name": "title",
          "type": "string"
        },
        {
          "indexed": false,
          "internalType": "address",
          "name": "createdBy",
          "type": "address"
        },
        {
          "indexed": false,
          "internalType": "uint256",
          "name": "endTime",
          "type": "uint256"
        }
      ],
      "name": "TenderCreated",
      "type": "event"
    },
    {
      "anonymous": false,
      "inputs": [
        {
          "indexed": true,
          "internalType": "uint256",
          "name": "tenderId",
          "type": "uint256"
        },
        {
          "indexed": false,
          "internalType": "address",
          "name": "voter",
          "type": "address"
        },
        {
          "indexed": false,
          "internalType": "bool",
          "name": "isUpvote",
          "type": "bool"
        },
        {
          "indexed": false,
          "internalType": "uint256",
          "name": "upvotes",
          "type": "uint256"
        },
        {
          "indexed": false,
          "internalType": "uint256",
          "name": "downvotes",
          "type": "uint256"
        }
      ],
      "name": "Voted",
      "type": "event"
    },
    {
      "inputs": [
        {
          "internalType": "uint256",
          "name": "",
          "type": "uint256"
        },
        {
          "internalType": "address",
          "name": "",
          "type": "address"
        }
      ],
      "name": "bidderAmounts",
      "outputs": [
        {
          "internalType": "uint256",
          "name": "",
          "type": "uint256"
        }
      ],
      "stateMutability": "view",
      "type": "function",
      "constant": true
    },
    {
      "inputs": [],
      "name": "owner",
      "outputs": [
        {
          "internalType": "address",
          "name": "",
          "type": "address"
        }
      ],
      "stateMutability": "view",
      "type": "function",
      "constant": true
    },
    {
      "inputs": [
        {
          "internalType": "uint256",
          "name": "",
          "type": "uint256"
        }
      ],
      "name": "registeredUserList",
      "outputs": [
        {
          "internalType": "address",
          "name": "",
          "type": "address"
        }
      ],
      "stateMutability": "view",
      "type": "function",
      "constant": true
    },
    {
      "inputs": [
        {
          "internalType": "address",
          "name": "",
          "type": "address"
        }
      ],
      "name": "registeredUsers",
      "outputs": [
        {
          "internalType": "bool",
          "name": "",
          "type": "bool"
        }
      ],
      "stateMutability": "view",
      "type": "function",
      "constant": true
    },
    {
      "inputs": [
        {
          "internalType": "uint256",
          "name": "",
          "type": "uint256"
        },
        {
          "internalType": "uint256",
          "name": "",
          "type": "uint256"
        }
      ],
      "name": "tenderBids",
      "outputs": [
        {
          "internalType": "address",
          "name": "bidder",
          "type": "address"
        },
        {
          "internalType": "uint256",
          "name": "amount",
          "type": "uint256"
        },
        {
          "internalType": "uint256",
          "name": "timestamp",
          "type": "uint256"
        }
      ],
      "stateMutability": "view",
      "type": "function",
      "constant": true
    },
    {
      "inputs": [],
      "name": "tenderCount",
      "outputs": [
        {
          "internalType": "uint256",
          "name": "",
          "type": "uint256"
        }
      ],
      "stateMutability": "view",
      "type": "function",
      "constant": true
    },
    {
      "inputs": [
        {
          "internalType": "uint256",
          "name": "",
          "type": "uint256"
        }
      ],
      "name": "tenders",
      "outputs": [
        {
          "internalType": "uint256",
          "name": "id",
          "type": "uint256"
        },
        {
          "internalType": "string",
          "name": "title",
          "type": "string"
        },
        {
          "internalType": "string",
          "name": "description",
          "type": "string"
        },
        {
          "internalType": "uint256",
          "name": "startingBid",
          "type": "uint256"
        },
        {
          "internalType": "uint256",
          "name": "highestBid",
          "type": "uint256"
        },
        {
          "internalType": "address",
          "name": "highestBidder",
          "type": "address"
        },
        {
          "internalType": "uint256",
          "name": "endTime",
          "type": "uint256"
        },
        {
          "internalType": "address",
          "name": "createdBy",
          "type": "address"
        },
        {
          "internalType": "bool",
          "name": "isActive",
          "type": "bool"
        },
        {
          "internalType": "bool",
          "name": "isAssigned",
          "type": "bool"
        },
        {
          "internalType": "uint256",
          "name": "upvotes",
          "type": "uint256"
        },
        {
          "internalType": "uint256",
          "name": "downvotes",
          "type": "uint256"
        }
      ],
      "stateMutability": "view",
      "type": "function",
      "constant": true
    },
    {
      "inputs": [
        {
          "internalType": "address",
          "name": "_user",
          "type": "address"
        }
      ],
      "name": "registerUser",
      "outputs": [],
      "stateMutability": "nonpayable",
      "type": "function"
    },
    {
      "inputs": [
        {
          "internalType": "string",
          "name": "_title",
          "type": "string"
        },
        {
          "internalType": "string",
          "name": "_description",
          "type": "string"
        },
        {
          "internalType": "uint256",
          "name": "_startingBid",
          "type": "uint256"
        },
        {
          "internalType": "uint256",
          "name": "_durationInMinutes",
          "type": "uint256"
        }
      ],
      "name": "createTender",
      "outputs": [],
      "stateMutability": "nonpayable",
      "type": "function"
    },
    {
      "inputs": [
        {
          "internalType": "uint256",
          "name": "_tenderId",
          "type": "uint256"
        },
        {
          "internalType": "bool",
          "name": "_isUpvote",
          "type": "bool"
        }
      ],
      "name": "vote",
      "outputs": [],
      "stateMutability": "nonpayable",
      "type": "function"
    },
    {
      "inputs": [
        {
          "internalType": "uint256",
          "name": "_tenderId",
          "type": "uint256"
        }
      ],
      "name": "getVotes",
      "outputs": [
        {
          "internalType": "uint256",
          "name": "upvotes",
          "type": "uint256"
        },
        {
          "internalType": "uint256",
          "name": "downvotes",
          "type": "uint256"
        }
      ],
      "stateMutability": "view",
      "type": "function",
      "constant": true
    },
    {
      "inputs": [
        {
          "internalType": "uint256",
          "name": "_tenderId",
          "type": "uint256"
        },
        {
          "internalType": "address",
          "name": "_user",
          "type": "address"
        }
      ],
      "name": "hasUserVoted",
      "outputs": [
        {
          "internalType": "bool",
          "name": "",
          "type": "bool"
        }
      ],
      "stateMutability": "view",
      "type": "function",
      "constant": true
    },
    {
      "inputs": [
        {
          "internalType": "uint256",
          "name": "_tenderId",
          "type": "uint256"
        }
      ],
      "name": "placeBid",
      "outputs": [],
      "stateMutability": "payable",
      "type": "function",
      "payable": true
    },
    {
      "inputs": [
        {
          "internalType": "uint256",
          "name": "_tenderId",
          "type": "uint256"
        }
      ],
      "name": "assignTender",
      "outputs": [],
      "stateMutability": "nonpayable",
      "type": "function"
    },
    {
      "inputs": [],
      "name": "getAllTenders",
      "outputs": [
        {
          "internalType": "uint256[]",
          "name": "ids",
          "type": "uint256[]"
        },
        {
          "internalType": "string[]",
          "name": "titles",
          "type": "string[]"
        },
        {
          "internalType": "string[]",
          "name": "descriptions",
          "type": "string[]"
        },
        {
          "internalType": "uint256[]",
          "name": "startingBids",
          "type": "uint256[]"
        },
        {
          "internalType": "uint256[]",
          "name": "highestBids",
          "type": "uint256[]"
        },
        {
          "internalType": "address[]",
          "name": "highestBidders",
          "type": "address[]"
        },
        {
          "internalType": "uint256[]",
          "name": "endTimes",
          "type": "uint256[]"
        },
        {
          "internalType": "address[]",
          "name": "createdBys",
          "type": "address[]"
        },
        {
          "internalType": "bool[]",
          "name": "isActives",
          "type": "bool[]"
        },
        {
          "internalType": "bool[]",
          "name": "isAssigneds",
          "type": "bool[]"
        },
        {
          "internalType": "uint256[]",
          "name": "upvotes",
          "type": "uint256[]"
        },
        {
          "internalType": "uint256[]",
          "name": "downvotes",
          "type": "uint256[]"
        }
      ],
      "stateMutability": "view",
      "type": "function",
      "constant": true
    },
    {
      "inputs": [
        {
          "internalType": "uint256",
          "name": "_tenderId",
          "type": "uint256"
        }
      ],
      "name": "getTenderBids",
      "outputs": [
        {
          "components": [
            {
              "internalType": "address",
              "name": "bidder",
              "type": "address"
            },
            {
              "internalType": "uint256",
              "name": "amount",
              "type": "uint256"
            },
            {
              "internalType": "uint256",
              "name": "timestamp",
              "type": "uint256"
            }
          ],
          "internalType": "struct Auction.Bid[]",
          "name": "",
          "type": "tuple[]"
        }
      ],
      "stateMutability": "view",
      "type": "function",
      "constant": true
    },
    {
      "inputs": [
        {
          "internalType": "address",
          "name": "_user",
          "type": "address"
        }
      ],
      "name": "isUserRegistered",
      "outputs": [
        {
          "internalType": "bool",
          "name": "",
          "type": "bool"
        }
      ],
      "stateMutability": "view",
      "type": "function",
      "constant": true
    },
    {
      "inputs": [],
      "name": "getRegisteredUsers",
      "outputs": [
        {
          "internalType": "address[]",
          "name": "",
          "type": "address[]"
        }
      ],
      "stateMutability": "view",
      "type": "function",
      "constant": true
    },
    {
      "inputs": [
        {
          "internalType": "uint256",
          "name": "_tenderId",
          "type": "uint256"
        },
        {
          "internalType": "address",
          "name": "_bidder",
          "type": "address"
        }
      ],
      "name": "getBidderAmount",
      "outputs": [
        {
          "internalType": "uint256",
          "name": "",
          "type": "uint256"
        }
      ],
      "stateMutability": "view",
      "type": "function",
      "constant": true
    }
  ],
  "bytecode": "0x608060405234801561001057600080fd5b50336000806101000a81548173ffffffffffffffffffffffffffffffffffffffff021916908373ffffffffffffffffffffffffffffffffffffffff16021790555060018060003373ffffffffffffffffffffffffffffffffffffffff1673ffffffffffffffffffffffffffffffffffffffff16815260200190815260200160002060006101000a81548160ff0219169083151502179055506002339080600181540180825580915050600190039060005260206000200160009091909190916101000a81548173ffffffffffffffffffffffffffffffffffffffff021916908373ffffffffffffffffffffffffffffffffffffffff160217905550613d0a8061011a6000396000f3fe608060405260043610610131576000357c0100000000000000000000000000000000000000000000000000000000900480638da5cb5b116100bd578063d24e183311610081578063d24e1833146103ff578063d927ee881461043c578063dc296ae114610465578063f7656287146104a2578063ff981099146104df57610131565b80638da5cb5b146103275780639035f5d5146103525780639979ef451461037b578063c23c252a14610397578063c9d27afe146103d657610131565b80632358c046116101045780632358c04614610204578063465e1def1461023a5780637073c072146102825780638734d24c146102ad5780638875aae1146102ea57610131565b80630e50cee514610136578063163f7522146101735780631f058776146101b05780632199d5cd146101db575b600080fd5b34801561014257600080fd5b5061015d600480360381019061015891906123ff565b61051d565b60405161016a9190612447565b60405180910390f35b34801561017f57600080fd5b5061019a600480360381019061019591906123ff565b61053d565b6040516101a79190612447565b60405180910390f35b3480156101bc57600080fd5b506101c5610593565b6040516101d2919061247b565b60405180910390f35b3480156101e757600080fd5b5061020260048036038101906101fd91906123ff565b610599565b005b34801561021057600080fd5b50610219610771565b6040516102319c9b9a99989796959493929190612822565b60405180910390f35b34801561024657600080fd5b50610261600480360381019061025c919061295c565b610ef0565b6040516102799c9b9a999897969594939291906129e2565b60405180910390f35b34801561028e57600080fd5b506102976110ca565b6040516102a49190612aaa565b60405180910390f35b3480156102b957600080fd5b506102d460048036038101906102cf9190612acc565b611158565b6040516102e1919061247b565b60405180910390f35b3480156102f657600080fd5b50610311600480360381019061030c919061295c565b61117d565b60405161031e9190612b0c565b60405180910390f35b34801561033357600080fd5b5061033c6111bc565b6040516103499190612b0c565b60405180910390f35b34801561035e57600080fd5b506103796004803603810190610374919061295c565b6111e0565b005b6103956004803603810190610390919061295c565b6114ff565b005b3480156103a357600080fd5b506103be60048036038101906103b99190612b27565b611b21565b6040516103cd93929190612b67565b60405180910390f35b3480156103e257600080fd5b506103fd60048036038101906103f89190612bca565b611b88565b005b34801561040b57600080fd5b5061042660048036038101906104219190612acc565b611dba565b604051610433919061247b565b60405180910390f35b34801561044857600080fd5b50610463600480360381019061045e9190612d3f565b611e15565b005b34801561047157600080fd5b5061048c60048036038101906104879190612acc565b61216c565b6040516104999190612447565b60405180910390f35b3480156104ae57600080fd5b506104c960048036038101906104c4919061295c565b61222d565b6040516104d69190612ecf565b60405180910390f35b3480156104eb57600080fd5b506105066004803603810190610501919061295c565b612309565b604051610514929190612ef1565b60405180910390f35b60016020528060005260406000206000915054906101000a900460ff1681565b6000600160008373ffffffffffffffffffffffffffffffffffffffff1673ffffffffffffffffffffffffffffffffffffffff16815260200190815260200160002060009054906101000a900460ff169050919050565b60065481565b60008054906101000a900473ffffffffffffffffffffffffffffffffffffffff1673ffffffffffffffffffffffffffffffffffffffff163373ffffffffffffffffffffffffffffffffffffffff1614610627576040517f08c379a000000000000000000000000000000000000000000000000000000000815260040161061e90612f66565b60405180910390fd5b600160008273ffffffffffffffffffffffffffffffffffffffff1673ffffffffffffffffffffffffffffffffffffffff16815260200190815260200160002060009054906101000a900460ff16156106b4576040517f08c379a00000000000000000000000000000000000000000000000000000000081526004016106ab90612fd2565b60405180910390fd5b60018060008373ffffffffffffffffffffffffffffffffffffffff1673ffffffffffffffffffffffffffffffffffffffff16815260200190815260200160002060006101000a81548160ff0219169083151502179055506002819080600181540180825580915050600190039060005260206000200160009091909190916101000a81548173ffffffffffffffffffffffffffffffffffffffff021916908373ffffffffffffffffffffffffffffffffffffffff16021790555050565b606080606080606080606080606080606080600060058054905090508067ffffffffffffffff8111156107a7576107a6612c14565b5b6040519080825280602002602001820160405280156107d55781602001602082028036833780820191505090505b509c508067ffffffffffffffff8111156107f2576107f1612c14565b5b60405190808252806020026020018201604052801561082557816020015b60608152602001906001900390816108105790505b509b508067ffffffffffffffff81111561084257610841612c14565b5b60405190808252806020026020018201604052801561087557816020015b60608152602001906001900390816108605790505b509a508067ffffffffffffffff81111561089257610891612c14565b5b6040519080825280602002602001820160405280156108c05781602001602082028036833780820191505090505b5099508067ffffffffffffffff8111156108dd576108dc612c14565b5b60405190808252806020026020018201604052801561090b5781602001602082028036833780820191505090505b5098508067ffffffffffffffff81111561092857610927612c14565b5b6040519080825280602002602001820160405280156109565781602001602082028036833780820191505090505b5097508067ffffffffffffffff81111561097357610972612c14565b5b6040519080825280602002602001820160405280156109a15781602001602082028036833780820191505090505b5096508067ffffffffffffffff8111156109be576109bd612c14565b5b6040519080825280602002602001820160405280156109ec5781602001602082028036833780820191505090505b5095508067ffffffffffffffff811115610a0957610a08612c14565b5b604051908082528060200260200182016040528015610a375781602001602082028036833780820191505090505b5094508067ffffffffffffffff811115610a5457610a53612c14565b5b604051908082528060200260200182016040528015610a825781602001602082028036833780820191505090505b5093508067ffffffffffffffff811115610a9f57610a9e612c14565b5b604051908082528060200260200182016040528015610acd5781602001602082028036833780820191505090505b5092508067ffffffffffffffff811115610aea57610ae9612c14565b5b604051908082528060200260200182016040528015610b185781602001602082028036833780820191505090505b50915060005b81811015610ee057600060058281548110610b3c57610b3b612ff2565b5b90600052602060002090600b0201905080600001548f8381518110610b6457610b63612ff2565b5b602002602001018181525050806001018054610b7f90613050565b80601f0160208091040260200160405190810160405280929190818152602001828054610bab90613050565b8015610bf85780601f10610bcd57610100808354040283529160200191610bf8565b820191906000526020600020905b815481529060010190602001808311610bdb57829003601f168201915b50505050508e8381518110610c1057610c0f612ff2565b5b6020026020010181905250806002018054610c2a90613050565b80601f0160208091040260200160405190810160405280929190818152602001828054610c5690613050565b8015610ca35780601f10610c7857610100808354040283529160200191610ca3565b820191906000526020600020905b815481529060010190602001808311610c8657829003601f168201915b50505050508d8381518110610cbb57610cba612ff2565b5b602002602001018190525080600301548c8381518110610cde57610cdd612ff2565b5b60200260200101818152505080600401548b8381518110610d0257610d01612ff2565b5b6020026020010181815250508060050160009054906101000a900473ffffffffffffffffffffffffffffffffffffffff168a8381518110610d4657610d45612ff2565b5b602002602001019073ffffffffffffffffffffffffffffffffffffffff16908173ffffffffffffffffffffffffffffffffffffffff16815250508060060154898381518110610d9857610d97612ff2565b5b6020026020010181815250508060070160009054906101000a900473ffffffffffffffffffffffffffffffffffffffff16888381518110610ddc57610ddb612ff2565b5b602002602001019073ffffffffffffffffffffffffffffffffffffffff16908173ffffffffffffffffffffffffffffffffffffffff16815250508060070160149054906101000a900460ff16878381518110610e3b57610e3a612ff2565b5b6020026020010190151590811515815250508060070160159054906101000a900460ff16868381518110610e7257610e71612ff2565b5b6020026020010190151590811515815250508060080154858381518110610e9c57610e9b612ff2565b5b6020026020010181815250508060090154848381518110610ec057610ebf612ff2565b5b602002602001018181525050508080610ed8906130b0565b915050610b1e565b5050909192939495969798999a9b565b60058181548110610f0057600080fd5b90600052602060002090600b0201600091509050806000015490806001018054610f2990613050565b80601f0160208091040260200160405190810160405280929190818152602001828054610f5590613050565b8015610fa25780601f10610f7757610100808354040283529160200191610fa2565b820191906000526020600020905b815481529060010190602001808311610f8557829003601f168201915b505050505090806002018054610fb790613050565b80601f0160208091040260200160405190810160405280929190818152602001828054610fe390613050565b80156110305780601f1061100557610100808354040283529160200191611030565b820191906000526020600020905b81548152906001019060200180831161101357829003601f168201915b5050505050908060030154908060040154908060050160009054906101000a900473ffffffffffffffffffffffffffffffffffffffff16908060060154908060070160009054906101000a900473ffffffffffffffffffffffffffffffffffffffff16908060070160149054906101000a900460ff16908060070160159054906101000a900460ff1690806008015490806009015490508c565b6060600280548060200260200160405190810160405280929190818152602001828054801561114e57602002820191906000526020600020905b8160009054906101000a900473ffffffffffffffffffffffffffffffffffffffff1673ffffffffffffffffffffffffffffffffffffffff1681526020019060010190808311611104575b5050505050905090565b6004602052816000526040600020602052806000526040600020600091509150505481565b6002818154811061118d57600080fd5b906000526020600020016000915054906101000a900473ffffffffffffffffffffffffffffffffffffffff1681565b60008054906101000a900473ffffffffffffffffffffffffffffffffffffffff1681565b6005805490508110611227576040517f08c379a000000000000000000000000000000000000000000000000000000000815260040161121e90613144565b60405180910390fd5b60006005828154811061123d5761123c612ff2565b5b90600052602060002090600b020190508060070160149054906101000a900460ff1661129e576040517f08c379a0000000000000000000000000000000000000000000000000000000008152600401611295906131d6565b60405180910390fd5b806006015442116112e4576040517f08c379a00000000000000000000000000000000000000000000000000000000081526004016112db90613242565b60405180910390fd5b600073ffffffffffffffffffffffffffffffffffffffff168160050160009054906101000a900473ffffffffffffffffffffffffffffffffffffffff1673ffffffffffffffffffffffffffffffffffffffff1603611377576040517f08c379a000000000000000000000000000000000000000000000000000000000815260040161136e906132ae565b60405180910390fd5b8060070160009054906101000a900473ffffffffffffffffffffffffffffffffffffffff1673ffffffffffffffffffffffffffffffffffffffff163373ffffffffffffffffffffffffffffffffffffffff161480611420575060008054906101000a900473ffffffffffffffffffffffffffffffffffffffff1673ffffffffffffffffffffffffffffffffffffffff163373ffffffffffffffffffffffffffffffffffffffff16145b61145f576040517f08c379a00000000000000000000000000000000000000000000000000000000081526004016114569061331a565b60405180910390fd5b60008160070160146101000a81548160ff02191690831515021790555060018160070160156101000a81548160ff021916908315150217905550817fedf4065c28f42474e33819c8349871614544936cdebf4e0b783a3a46124e1bcc8260050160009054906101000a900473ffffffffffffffffffffffffffffffffffffffff1683600401546040516114f392919061333a565b60405180910390a25050565b803373ffffffffffffffffffffffffffffffffffffffff166005828154811061152b5761152a612ff2565b5b90600052602060002090600b020160070160009054906101000a900473ffffffffffffffffffffffffffffffffffffffff1673ffffffffffffffffffffffffffffffffffffffff16036115b3576040517f08c379a00000000000000000000000000000000000000000000000000000000081526004016115aa906133d5565b60405180910390fd5b60058054905082106115fa576040517f08c379a00000000000000000000000000000000000000000000000000000000081526004016115f190613144565b60405180910390fd5b6000600583815481106116105761160f612ff2565b5b90600052602060002090600b020190508060070160149054906101000a900460ff16611671576040517f08c379a000000000000000000000000000000000000000000000000000000000815260040161166890613441565b60405180910390fd5b80600601544211156116b8576040517f08c379a00000000000000000000000000000000000000000000000000000000081526004016116af906134ad565b60405180910390fd5b600034116116fb576040517f08c379a00000000000000000000000000000000000000000000000000000000081526004016116f29061353f565b60405180910390fd5b60006004600085815260200190815260200160002060003373ffffffffffffffffffffffffffffffffffffffff1673ffffffffffffffffffffffffffffffffffffffff1681526020019081526020016000205490506000348261175e919061355f565b90506000820361187d57826004015481116117ae576040517f08c379a00000000000000000000000000000000000000000000000000000000081526004016117a590613605565b60405180910390fd5b6003600086815260200190815260200160002060405180606001604052803373ffffffffffffffffffffffffffffffffffffffff16815260200183815260200142815250908060018154018082558091505060019003906000526020600020906003020160009091909190915060008201518160000160006101000a81548173ffffffffffffffffffffffffffffffffffffffff021916908373ffffffffffffffffffffffffffffffffffffffff16021790555060208201518160010155604082015181600201555050611a3f565b8181116118bf576040517f08c379a00000000000000000000000000000000000000000000000000000000081526004016118b690613697565b60405180910390fd5b82600401548111611905576040517f08c379a00000000000000000000000000000000000000000000000000000000081526004016118fc90613605565b60405180910390fd5b60005b6003600087815260200190815260200160002080549050811015611a3d573373ffffffffffffffffffffffffffffffffffffffff1660036000888152602001908152602001600020828154811061196257611961612ff2565b5b906000526020600020906003020160000160009054906101000a900473ffffffffffffffffffffffffffffffffffffffff1673ffffffffffffffffffffffffffffffffffffffff1603611a2a57816003600088815260200190815260200160002082815481106119d5576119d4612ff2565b5b90600052602060002090600302016001018190555042600360008881526020019081526020016000208281548110611a1057611a0f612ff2565b5b906000526020600020906003020160020181905550611a3d565b8080611a35906130b0565b915050611908565b505b806004600087815260200190815260200160002060003373ffffffffffffffffffffffffffffffffffffffff1673ffffffffffffffffffffffffffffffffffffffff16815260200190815260200160002081905550808360040181905550338360050160006101000a81548173ffffffffffffffffffffffffffffffffffffffff021916908373ffffffffffffffffffffffffffffffffffffffff160217905550847f0e54eff26401bf69b81b26f60bd85ef47f5d85275c1d268d84f68d6897431c473383604051611b1292919061333a565b60405180910390a25050505050565b60036020528160005260406000208181548110611b3d57600080fd5b9060005260206000209060030201600091509150508060000160009054906101000a900473ffffffffffffffffffffffffffffffffffffffff16908060010154908060020154905083565b6005805490508210611bcf576040517f08c379a0000000000000000000000000000000000000000000000000000000008152600401611bc690613144565b60405180910390fd5b600060058381548110611be557611be4612ff2565b5b90600052602060002090600b0201905080600a0160003373ffffffffffffffffffffffffffffffffffffffff1673ffffffffffffffffffffffffffffffffffffffff16815260200190815260200160002060009054906101000a900460ff1615611c84576040517f08c379a0000000000000000000000000000000000000000000000000000000008152600401611c7b90613729565b60405180910390fd5b8060070160149054906101000a900460ff16611cd5576040517f08c379a0000000000000000000000000000000000000000000000000000000008152600401611ccc90613441565b60405180910390fd5b8115611cfa57806008016000815480929190611cf0906130b0565b9190505550611d15565b806009016000815480929190611d0f906130b0565b91905055505b600181600a0160003373ffffffffffffffffffffffffffffffffffffffff1673ffffffffffffffffffffffffffffffffffffffff16815260200190815260200160002060006101000a81548160ff021916908315150217905550827f72977ad883f7d5821678747ec7baf0a5afb5fcb5da86f061dbd347b408edef44338484600801548560090154604051611dad9493929190613749565b60405180910390a2505050565b60006004600084815260200190815260200160002060008373ffffffffffffffffffffffffffffffffffffffff1673ffffffffffffffffffffffffffffffffffffffff16815260200190815260200160002054905092915050565b600160003373ffffffffffffffffffffffffffffffffffffffff1673ffffffffffffffffffffffffffffffffffffffff16815260200190815260200160002060009054906101000a900460ff16611ea1576040517f08c379a0000000000000000000000000000000000000000000000000000000008152600401611e98906137da565b60405180910390fd5b60008211611ee4576040517f08c379a0000000000000000000000000000000000000000000000000000000008152600401611edb9061386c565b60405180910390fd5b60008111611f27576040517f08c379a0000000000000000000000000000000000000000000000000000000008152600401611f1e906138d8565b60405180910390fd5b6000845111611f6b576040517f08c379a0000000000000000000000000000000000000000000000000000000008152600401611f6290613944565b60405180910390fd5b6000835111611faf576040517f08c379a0000000000000000000000000000000000000000000000000000000008152600401611fa6906139b0565b60405180910390fd5b6000603c82611fbe91906139d0565b42611fc9919061355f565b9050600060056001816001815401808255809150500390600052602060002090600b0201905060065481600001819055508581600101908161200b9190613bc4565b508481600201908161201d9190613bc4565b5083816003018190555083816004018190555060008160050160006101000a81548173ffffffffffffffffffffffffffffffffffffffff021916908373ffffffffffffffffffffffffffffffffffffffff160217905550818160060181905550338160070160006101000a81548173ffffffffffffffffffffffffffffffffffffffff021916908373ffffffffffffffffffffffffffffffffffffffff16021790555060018160070160146101000a81548160ff02191690831515021790555060008160070160156101000a81548160ff02191690831515021790555060008160080181905550600081600901819055506006547fdeae53eb0cfff3d5afe709a95e7be30ae09b9b9f381a5a45b68dfe6636edd59d87338560405161214493929190613c96565b60405180910390a26006600081548092919061215f906130b0565b9190505550505050505050565b600060058054905083106121b5576040517f08c379a00000000000000000000000000000000000000000000000000000000081526004016121ac90613144565b60405180910390fd5b600583815481106121c9576121c8612ff2565b5b90600052602060002090600b0201600a0160008373ffffffffffffffffffffffffffffffffffffffff1673ffffffffffffffffffffffffffffffffffffffff16815260200190815260200160002060009054906101000a900460ff16905092915050565b606060036000838152602001908152602001600020805480602002602001604051908101604052809291908181526020016000905b828210156122fe57838290600052602060002090600302016040518060600160405290816000820160009054906101000a900473ffffffffffffffffffffffffffffffffffffffff1673ffffffffffffffffffffffffffffffffffffffff1673ffffffffffffffffffffffffffffffffffffffff1681526020016001820154815260200160028201548152505081526020019060010190612262565b505050509050919050565b6000806005805490508310612353576040517f08c379a000000000000000000000000000000000000000000000000000000000815260040161234a90613144565b60405180910390fd5b60006005848154811061236957612368612ff2565b5b90600052602060002090600b02019050806008015481600901549250925050915091565b6000604051905090565b600080fd5b600080fd5b600073ffffffffffffffffffffffffffffffffffffffff82169050919050565b60006123cc826123a1565b9050919050565b6123dc816123c1565b81146123e757600080fd5b50565b6000813590506123f9816123d3565b92915050565b60006020828403121561241557612414612397565b5b6000612423848285016123ea565b91505092915050565b60008115159050919050565b6124418161242c565b82525050565b600060208201905061245c6000830184612438565b92915050565b6000819050919050565b61247581612462565b82525050565b6000602082019050612490600083018461246c565b92915050565b600081519050919050565b600082825260208201905092915050565b6000819050602082019050919050565b6124cb81612462565b82525050565b60006124dd83836124c2565b60208301905092915050565b6000602082019050919050565b600061250182612496565b61250b81856124a1565b9350612516836124b2565b8060005b8381101561254757815161252e88826124d1565b9750612539836124e9565b92505060018101905061251a565b5085935050505092915050565b600081519050919050565b600082825260208201905092915050565b6000819050602082019050919050565b600081519050919050565b600082825260208201905092915050565b60005b838110156125ba57808201518184015260208101905061259f565b60008484015250505050565b6000601f19601f8301169050919050565b60006125e282612580565b6125ec818561258b565b93506125fc81856020860161259c565b612605816125c6565b840191505092915050565b600061261c83836125d7565b905092915050565b6000602082019050919050565b600061263c82612554565b612646818561255f565b93508360208202850161265885612570565b8060005b8581101561269457848403895281516126758582612610565b945061268083612624565b925060208a0199505060018101905061265c565b50829750879550505050505092915050565b600081519050919050565b600082825260208201905092915050565b6000819050602082019050919050565b6126db816123c1565b82525050565b60006126ed83836126d2565b60208301905092915050565b6000602082019050919050565b6000612711826126a6565b61271b81856126b1565b9350612726836126c2565b8060005b8381101561275757815161273e88826126e1565b9750612749836126f9565b92505060018101905061272a565b5085935050505092915050565b600081519050919050565b600082825260208201905092915050565b6000819050602082019050919050565b6127998161242c565b82525050565b60006127ab8383612790565b60208301905092915050565b6000602082019050919050565b60006127cf82612764565b6127d9818561276f565b93506127e483612780565b8060005b838110156128155781516127fc888261279f565b9750612807836127b7565b9250506001810190506127e8565b5085935050505092915050565b600061018082019050818103600083015261283d818f6124f6565b90508181036020830152612851818e612631565b90508181036040830152612865818d612631565b90508181036060830152612879818c6124f6565b9050818103608083015261288d818b6124f6565b905081810360a08301526128a1818a612706565b905081810360c08301526128b581896124f6565b905081810360e08301526128c98188612706565b90508181036101008301526128de81876127c4565b90508181036101208301526128f381866127c4565b905081810361014083015261290881856124f6565b905081810361016083015261291d81846124f6565b90509d9c50505050505050505050505050565b61293981612462565b811461294457600080fd5b50565b60008135905061295681612930565b92915050565b60006020828403121561297257612971612397565b5b600061298084828501612947565b91505092915050565b600082825260208201905092915050565b60006129a582612580565b6129af8185612989565b93506129bf81856020860161259c565b6129c8816125c6565b840191505092915050565b6129dc816123c1565b82525050565b6000610180820190506129f8600083018f61246c565b8181036020830152612a0a818e61299a565b90508181036040830152612a1e818d61299a565b9050612a2d606083018c61246c565b612a3a608083018b61246c565b612a4760a083018a6129d3565b612a5460c083018961246c565b612a6160e08301886129d3565b612a6f610100830187612438565b612a7d610120830186612438565b612a8b61014083018561246c565b612a9961016083018461246c565b9d9c50505050505050505050505050565b60006020820190508181036000830152612ac48184612706565b905092915050565b60008060408385031215612ae357612ae2612397565b5b6000612af185828601612947565b9250506020612b02858286016123ea565b9150509250929050565b6000602082019050612b2160008301846129d3565b92915050565b60008060408385031215612b3e57612b3d612397565b5b6000612b4c85828601612947565b9250506020612b5d85828601612947565b9150509250929050565b6000606082019050612b7c60008301866129d3565b612b89602083018561246c565b612b96604083018461246c565b949350505050565b612ba78161242c565b8114612bb257600080fd5b50565b600081359050612bc481612b9e565b92915050565b60008060408385031215612be157612be0612397565b5b6000612bef85828601612947565b9250506020612c0085828601612bb5565b9150509250929050565b600080fd5b600080fd5b7f4e487b7100000000000000000000000000000000000000000000000000000000600052604160045260246000fd5b612c4c826125c6565b810181811067ffffffffffffffff82111715612c6b57612c6a612c14565b5b80604052505050565b6000612c7e61238d565b9050612c8a8282612c43565b919050565b600067ffffffffffffffff821115612caa57612ca9612c14565b5b612cb3826125c6565b9050602081019050919050565b82818337600083830152505050565b6000612ce2612cdd84612c8f565b612c74565b905082815260208101848484011115612cfe57612cfd612c0f565b5b612d09848285612cc0565b509392505050565b600082601f830112612d2657612d25612c0a565b5b8135612d36848260208601612ccf565b91505092915050565b60008060008060808587031215612d5957612d58612397565b5b600085013567ffffffffffffffff811115612d7757612d7661239c565b5b612d8387828801612d11565b945050602085013567ffffffffffffffff811115612da457612da361239c565b5b612db087828801612d11565b9350506040612dc187828801612947565b9250506060612dd287828801612947565b91505092959194509250565b600081519050919050565b600082825260208201905092915050565b6000819050602082019050919050565b606082016000820151612e2060008501826126d2565b506020820151612e3360208501826124c2565b506040820151612e4660408501826124c2565b50505050565b6000612e588383612e0a565b60608301905092915050565b6000602082019050919050565b6000612e7c82612dde565b612e868185612de9565b9350612e9183612dfa565b8060005b83811015612ec2578151612ea98882612e4c565b9750612eb483612e64565b925050600181019050612e95565b5085935050505092915050565b60006020820190508181036000830152612ee98184612e71565b905092915050565b6000604082019050612f06600083018561246c565b612f13602083018461246c565b9392505050565b7f4f6e6c79206f776e65722063616e207265676973746572207573657273000000600082015250565b6000612f50601d83612989565b9150612f5b82612f1a565b602082019050919050565b60006020820190508181036000830152612f7f81612f43565b9050919050565b7f5573657220616c72656164792072656769737465726564000000000000000000600082015250565b6000612fbc601783612989565b9150612fc782612f86565b602082019050919050565b60006020820190508181036000830152612feb81612faf565b9050919050565b7f4e487b7100000000000000000000000000000000000000000000000000000000600052603260045260246000fd5b7f4e487b7100000000000000000000000000000000000000000000000000000000600052602260045260246000fd5b6000600282049050600182168061306857607f821691505b60208210810361307b5761307a613021565b5b50919050565b7f4e487b7100000000000000000000000000000000000000000000000000000000600052601160045260246000fd5b60006130bb82612462565b91507fffffffffffffffffffffffffffffffffffffffffffffffffffffffffffffffff82036130ed576130ec613081565b5b600182019050919050565b7f54656e64657220646f6573206e6f742065786973740000000000000000000000600082015250565b600061312e601583612989565b9150613139826130f8565b602082019050919050565b6000602082019050818103600083015261315d81613121565b9050919050565b7f54656e64657220616c72656164792061737369676e6564206f7220696e61637460008201527f6976650000000000000000000000000000000000000000000000000000000000602082015250565b60006131c0602383612989565b91506131cb82613164565b604082019050919050565b600060208201905081810360008301526131ef816131b3565b9050919050565b7f42696464696e672074696d65206e6f74206f7665722079657400000000000000600082015250565b600061322c601983612989565b9150613237826131f6565b602082019050919050565b6000602082019050818103600083015261325b8161321f565b9050919050565b7f4e6f206269647320706c61636564206f6e20746869732074656e646572000000600082015250565b6000613298601d83612989565b91506132a382613262565b602082019050919050565b600060208201905081810360008301526132c78161328b565b9050919050565b7f4f6e6c792063726561746f72206f72206f776e65722063616e2061737369676e600082015250565b6000613304602083612989565b915061330f826132ce565b602082019050919050565b60006020820190508181036000830152613333816132f7565b9050919050565b600060408201905061334f60008301856129d3565b61335c602083018461246c565b9392505050565b7f54656e6465722063726561746f722063616e6e6f7420626964206f6e2074686560008201527f6972206f776e2074656e64657200000000000000000000000000000000000000602082015250565b60006133bf602d83612989565b91506133ca82613363565b604082019050919050565b600060208201905081810360008301526133ee816133b2565b9050919050565b7f54656e646572206973206e6f7420616374697665000000000000000000000000600082015250565b600061342b601483612989565b9150613436826133f5565b602082019050919050565b6000602082019050818103600083015261345a8161341e565b9050919050565b7f42696464696e672074696d65206973206f766572000000000000000000000000600082015250565b6000613497601483612989565b91506134a282613461565b602082019050919050565b600060208201905081810360008301526134c68161348a565b9050919050565b7f42696420616d6f756e74206d7573742062652067726561746572207468616e2060008201527f3000000000000000000000000000000000000000000000000000000000000000602082015250565b6000613529602183612989565b9150613534826134cd565b604082019050919050565b600060208201905081810360008301526135588161351c565b9050919050565b600061356a82612462565b915061357583612462565b925082820190508082111561358d5761358c613081565b5b92915050565b7f426964206d75737420626520686967686572207468616e2063757272656e742060008201527f6869676865737420626964000000000000000000000000000000000000000000602082015250565b60006135ef602b83612989565b91506135fa82613593565b604082019050919050565b6000602082019050818103600083015261361e816135e2565b9050919050565b7f4e657720626964206d75737420626520686967686572207468616e20796f757260008201527f2070726576696f75732062696400000000000000000000000000000000000000602082015250565b6000613681602d83612989565b915061368c82613625565b604082019050919050565b600060208201905081810360008301526136b081613674565b9050919050565b7f596f75206861766520616c726561647920766f746564206f6e2074686973207460008201527f656e646572000000000000000000000000000000000000000000000000000000602082015250565b6000613713602583612989565b915061371e826136b7565b604082019050919050565b6000602082019050818103600083015261374281613706565b9050919050565b600060808201905061375e60008301876129d3565b61376b6020830186612438565b613778604083018561246c565b613785606083018461246c565b95945050505050565b7f596f7520617265206e6f74206120726567697374657265642075736572000000600082015250565b60006137c4601d83612989565b91506137cf8261378e565b602082019050919050565b600060208201905081810360008301526137f3816137b7565b9050919050565b7f5374617274696e6720626964206d75737420626520677265617465722074686160008201527f6e20300000000000000000000000000000000000000000000000000000000000602082015250565b6000613856602383612989565b9150613861826137fa565b604082019050919050565b6000602082019050818103600083015261388581613849565b9050919050565b7f4475726174696f6e206d7573742062652067726561746572207468616e203000600082015250565b60006138c2601f83612989565b91506138cd8261388c565b602082019050919050565b600060208201905081810360008301526138f1816138b5565b9050919050565b7f5469746c652063616e6e6f7420626520656d7074790000000000000000000000600082015250565b600061392e601583612989565b9150613939826138f8565b602082019050919050565b6000602082019050818103600083015261395d81613921565b9050919050565b7f4465736372697074696f6e2063616e6e6f7420626520656d7074790000000000600082015250565b600061399a601b83612989565b91506139a582613964565b602082019050919050565b600060208201905081810360008301526139c98161398d565b9050919050565b60006139db82612462565b91506139e683612462565b92508282026139f481612462565b91508282048414831517613a0b57613a0a613081565b5b5092915050565b60008190508160005260206000209050919050565b60006020601f8301049050919050565b60008160020a8302905092915050565b600060088302613a777fffffffffffffffffffffffffffffffffffffffffffffffffffffffffffffffff82613a37565b613a818683613a37565b95508019841693508086168417925050509392505050565b6000819050919050565b6000613abe613ab9613ab484612462565b613a99565b612462565b9050919050565b6000819050919050565b613ad883613aa3565b613aec613ae482613ac5565b848454613a47565b825550505050565b600090565b613b01613af4565b613b0c818484613acf565b505050565b5b81811015613b3057613b25600082613af9565b600181019050613b12565b5050565b601f821115613b7557613b4681613a12565b613b4f84613a27565b81016020851015613b5e578190505b613b72613b6a85613a27565b830182613b11565b50505b505050565b60008160020a8304905092915050565b6000613b9b60001984600802613b7a565b1980831691505092915050565b6000613bb48383613b8a565b9150826002028217905092915050565b613bcd82612580565b67ffffffffffffffff811115613be657613be5612c14565b5b613bf08254613050565b613bfb828285613b34565b600060209050601f831160018114613c2e5760008415613c1c578287015190505b613c268582613ba8565b865550613c8e565b601f198416613c3c86613a12565b60005b82811015613c6457848901518255600182019150602085019450602081019050613c3f565b86831015613c815784890151613c7d601f891682613b8a565b8355505b6001600288020188555050505b505050505050565b60006060820190508181036000830152613cb0818661299a565b9050613cbf60208301856129d3565b613ccc604083018461246c565b94935050505056fea2646970667358221220741235e3590592d20d03a29d846e8eb7307b8781b10780e5e55421f21893a56364736f6c63430008150033",
  "immutableReferences": {},
  "source": "// SPDX-License-Identifier: GPL-3.0\r\npragma solidity >=0.4.0 <0.9.0;\r\n\r\ncontract Auction {\r\n    address public owner;\r\n    \r\n    // Registered users\r\n    mapping (address => bool) public registeredUsers;\r\n    address[] public registeredUserList;\r\n    \r\n    // Tender structure with voting\r\n    struct Tender {\r\n        uint id;\r\n        string title;\r\n        string description;\r\n        uint startingBid;\r\n        uint highestBid;\r\n        address highestBidder;\r\n        uint endTime;\r\n        address createdBy;\r\n        bool isActive;\r\n        bool isAssigned;\r\n        uint upvotes;\r\n        uint downvotes;\r\n        mapping(address => bool) hasVoted;\r\n    }\r\n    \r\n    // Bid structure\r\n    struct Bid {\r\n        address bidder;\r\n        uint amount;\r\n        uint timestamp;\r\n    }\r\n    \r\n    // Mapping from tender ID to array of bids\r\n    mapping(uint => Bid[]) public tenderBids;\r\n    // Mapping to track if an address has bid on a specific tender and their current bid\r\n    mapping(uint => mapping(address => uint)) public bidderAmounts;\r\n    \r\n    Tender[] public tenders;\r\n    uint public tenderCount;\r\n    \r\n    // Events\r\n    event TenderCreated(uint indexed id, string title, address createdBy, uint endTime);\r\n    event BidPlaced(uint indexed tenderId, address bidder, uint amount);\r\n    event TenderAssigned(uint indexed tenderId, address winner, uint amount);\r\n    event Voted(uint indexed tenderId, address voter, bool isUpvote, uint upvotes, uint downvotes);\r\n    \r\n    modifier onlyRegistered() {\r\n        require(registeredUsers[msg.sender], \"You are not a registered user\");\r\n        _;\r\n    }\r\n    \r\n    modifier notTenderCreator(uint _tenderId) {\r\n        require(tenders[_tenderId].createdBy != msg.sender, \"Tender creator cannot bid on their own tender\");\r\n        _;\r\n    }\r\n    \r\n    constructor() {\r\n        owner = msg.sender;\r\n        // Register the contract owner by default\r\n        registeredUsers[msg.sender] = true;\r\n        registeredUserList.push(msg.sender);\r\n    }\r\n    \r\n    // Register a user (only owner can register)\r\n    function registerUser(address _user) public {\r\n        require(msg.sender == owner, \"Only owner can register users\");\r\n        require(!registeredUsers[_user], \"User already registered\");\r\n        \r\n        registeredUsers[_user] = true;\r\n        registeredUserList.push(_user);\r\n    }\r\n    \r\n    // Create a tender (only registered users)\r\n    function createTender(\r\n        string memory _title,\r\n        string memory _description,\r\n        uint _startingBid,\r\n        uint _durationInMinutes\r\n    ) public onlyRegistered {\r\n        require(_startingBid > 0, \"Starting bid must be greater than 0\");\r\n        require(_durationInMinutes > 0, \"Duration must be greater than 0\");\r\n        require(bytes(_title).length > 0, \"Title cannot be empty\");\r\n        require(bytes(_description).length > 0, \"Description cannot be empty\");\r\n        \r\n        uint endTime = block.timestamp + (_durationInMinutes * 1 minutes);\r\n        \r\n        Tender storage newTender = tenders.push();\r\n        newTender.id = tenderCount;\r\n        newTender.title = _title;\r\n        newTender.description = _description;\r\n        newTender.startingBid = _startingBid;\r\n        newTender.highestBid = _startingBid;\r\n        newTender.highestBidder = address(0);\r\n        newTender.endTime = endTime;\r\n        newTender.createdBy = msg.sender;\r\n        newTender.isActive = true;\r\n        newTender.isAssigned = false;\r\n        newTender.upvotes = 0;\r\n        newTender.downvotes = 0;\r\n        \r\n        emit TenderCreated(tenderCount, _title, msg.sender, endTime);\r\n        tenderCount++;\r\n    }\r\n    \r\n    // Vote on a tender\r\n    function vote(uint _tenderId, bool _isUpvote) public {\r\n        require(_tenderId < tenders.length, \"Tender does not exist\");\r\n        Tender storage tender = tenders[_tenderId];\r\n        \r\n        require(!tender.hasVoted[msg.sender], \"You have already voted on this tender\");\r\n        require(tender.isActive, \"Tender is not active\");\r\n        \r\n        if (_isUpvote) {\r\n            tender.upvotes++;\r\n        } else {\r\n            tender.downvotes++;\r\n        }\r\n        \r\n        tender.hasVoted[msg.sender] = true;\r\n        \r\n        emit Voted(_tenderId, msg.sender, _isUpvote, tender.upvotes, tender.downvotes);\r\n    }\r\n    \r\n    // Get vote counts for a tender\r\n    function getVotes(uint _tenderId) public view returns (uint upvotes, uint downvotes) {\r\n        require(_tenderId < tenders.length, \"Tender does not exist\");\r\n        Tender storage tender = tenders[_tenderId];\r\n        return (tender.upvotes, tender.downvotes);\r\n    }\r\n    \r\n    // Check if user has voted on a tender\r\n    function hasUserVoted(uint _tenderId, address _user) public view returns (bool) {\r\n        require(_tenderId < tenders.length, \"Tender does not exist\");\r\n        return tenders[_tenderId].hasVoted[_user];\r\n    }\r\n    \r\n    // Place a bid on a specific tender\r\n    function placeBid(uint _tenderId) public payable notTenderCreator(_tenderId) {\r\n        require(_tenderId < tenders.length, \"Tender does not exist\");\r\n        Tender storage tender = tenders[_tenderId];\r\n        \r\n        require(tender.isActive, \"Tender is not active\");\r\n        require(block.timestamp <= tender.endTime, \"Bidding time is over\");\r\n        require(msg.value > 0, \"Bid amount must be greater than 0\");\r\n        \r\n        uint currentBid = bidderAmounts[_tenderId][msg.sender];\r\n        uint newBidAmount = currentBid + msg.value;\r\n        \r\n        if (currentBid == 0) {\r\n            require(newBidAmount > tender.highestBid, \"Bid must be higher than current highest bid\");\r\n            \r\n            tenderBids[_tenderId].push(Bid({\r\n                bidder: msg.sender,\r\n                amount: newBidAmount,\r\n                timestamp: block.timestamp\r\n            }));\r\n        } else {\r\n            require(newBidAmount > currentBid, \"New bid must be higher than your previous bid\");\r\n            require(newBidAmount > tender.highestBid, \"Bid must be higher than current highest bid\");\r\n            \r\n            for (uint i = 0; i < tenderBids[_tenderId].length; i++) {\r\n                if (tenderBids[_tenderId][i].bidder == msg.sender) {\r\n                    tenderBids[_tenderId][i].amount = newBidAmount;\r\n                    tenderBids[_tenderId][i].timestamp = block.timestamp;\r\n                    break;\r\n                }\r\n            }\r\n        }\r\n        \r\n        bidderAmounts[_tenderId][msg.sender] = newBidAmount;\r\n        tender.highestBid = newBidAmount;\r\n        tender.highestBidder = msg.sender;\r\n        \r\n        emit BidPlaced(_tenderId, msg.sender, newBidAmount);\r\n    }\r\n    \r\n    // Assign tender to highest bidder after time ends\r\n    function assignTender(uint _tenderId) public {\r\n        require(_tenderId < tenders.length, \"Tender does not exist\");\r\n        Tender storage tender = tenders[_tenderId];\r\n        \r\n        require(tender.isActive, \"Tender already assigned or inactive\");\r\n        require(block.timestamp > tender.endTime, \"Bidding time not over yet\");\r\n        require(tender.highestBidder != address(0), \"No bids placed on this tender\");\r\n        require(msg.sender == tender.createdBy || msg.sender == owner, \"Only creator or owner can assign\");\r\n        \r\n        tender.isActive = false;\r\n        tender.isAssigned = true;\r\n        \r\n        emit TenderAssigned(_tenderId, tender.highestBidder, tender.highestBid);\r\n    }\r\n    \r\n    // Get all tenders\r\n    function getAllTenders() public view returns (\r\n        uint[] memory ids,\r\n        string[] memory titles,\r\n        string[] memory descriptions,\r\n        uint[] memory startingBids,\r\n        uint[] memory highestBids,\r\n        address[] memory highestBidders,\r\n        uint[] memory endTimes,\r\n        address[] memory createdBys,\r\n        bool[] memory isActives,\r\n        bool[] memory isAssigneds,\r\n        uint[] memory upvotes,\r\n        uint[] memory downvotes\r\n    ) {\r\n        uint len = tenders.length;\r\n        \r\n        ids = new uint[](len);\r\n        titles = new string[](len);\r\n        descriptions = new string[](len);\r\n        startingBids = new uint[](len);\r\n        highestBids = new uint[](len);\r\n        highestBidders = new address[](len);\r\n        endTimes = new uint[](len);\r\n        createdBys = new address[](len);\r\n        isActives = new bool[](len);\r\n        isAssigneds = new bool[](len);\r\n        upvotes = new uint[](len);\r\n        downvotes = new uint[](len);\r\n        \r\n        for (uint i = 0; i < len; i++) {\r\n            Tender storage t = tenders[i];\r\n            ids[i] = t.id;\r\n            titles[i] = t.title;\r\n            descriptions[i] = t.description;\r\n            startingBids[i] = t.startingBid;\r\n            highestBids[i] = t.highestBid;\r\n            highestBidders[i] = t.highestBidder;\r\n            endTimes[i] = t.endTime;\r\n            createdBys[i] = t.createdBy;\r\n            isActives[i] = t.isActive;\r\n            isAssigneds[i] = t.isAssigned;\r\n            upvotes[i] = t.upvotes;\r\n            downvotes[i] = t.downvotes;\r\n        }\r\n    }\r\n    \r\n    // Get bids for a specific tender\r\n    function getTenderBids(uint _tenderId) public view returns (Bid[] memory) {\r\n        return tenderBids[_tenderId];\r\n    }\r\n    \r\n    // Check if user is registered\r\n    function isUserRegistered(address _user) public view returns(bool) {\r\n        return registeredUsers[_user];\r\n    }\r\n    \r\n    // Get all registered users\r\n    function getRegisteredUsers() public view returns(address[] memory) {\r\n        return registeredUserList;\r\n    }\r\n    \r\n    // Get bidder's current bid on a tender\r\n    function getBidderAmount(uint _tenderId, address _bidder) public view returns(uint) {\r\n        return bidderAmounts[_tenderId][_bidder];\r\n    }\r\n}\r\n    ",
  "sourcePath": "C:\\Thanusha\\ICBT\\Topup ( data science )\\Blockchain\\Project\\contracts\\Auction.sol",
  "compiler": {
    "name": "solc",
    "version": "0.8.21+commit.d9974bed.Emscripten.clang"
  },
  "schemaVersion": "3.4.16",
  "updatedAt": "2026-03-01T05:26:43.854Z",
  "networkType": "ethereum",
  "devdoc": {
    "kind": "dev",
    "methods": {},
    "version": 1
  },
  "userdoc": {
    "kind": "user",
    "methods": {},
    "version": 1
  }
}